:100000000C948C480C94BD480C94BD480C94BD488D
:100010000C94BD480C94BD480C94BD480C94BD484C
:100020000C94BD480C94BD480C94BD480C94BD483C
:100030000C94BD480C94E84E0C94BD480C94BD48FB
:100040000C94BD480C94BD480C94E94D0C94BD48EB
:100050000C94BD480C94BD480C94BD480C943F4D85
:100060000C94BD480C94B34D0C94894D0C94BD4830
:100070000C94BD480C943F4F0C94BD480C94BD4863
:100080000C94BD480C94BD480C94BD480C94BD48DC
:100090000C94BD480C94BD480C94BD480C94BD48CC
:1000A0000C94BD480C94BD480C94BD480C94BD48BC
:1000B0000C94BD480C94BD480C94BD480C94BD48AC
:1000C0000C94BD480C94BD480C94BD480C94BD489C
:1000D0000C94BD480C94BD480C94BD480C94BD488C
:1000E0000C94BD480C941B490C9429490C940C4A5F
:1000F0000C942D490C94EA490C94AE490C940A498D
:100100000C9437490C940E490C9441490C941F49A6
:100110000C94F4480C9406490C9415490C943B49F2
:100120000C9425490C94DB490C9412490C94444AD4
:100130000C94EF480C9433490C94FE490C94F34F03
:100140000C94914A0C94454900002000230026009D
:1001500029002C002F0032000001000003010601DD
:1001600009017C7C7D7C7D7E7F80807F7F80818794
:10017000898A8E8D8E8E939294908E8B88847F7DCB
:100180007B7E7E7D797977777E807D7C79797B77C0
:10019000747474767975757575737675777D8184E9
:1001A000857F7E7F7D7E82817E7C7A7B7C7B797978
:1001B000777B7F80818284848583807D8081898D27
:1001C0008A8A888B9295928F8D8B8C8F8F877F7A7E
:1001D000797975737173747A7E8085838589888552
:1001E000827E7C7D7B78777676747475777575748E
:1001F00073737271717376797C7D7E7F7F7D7D8074
:1002000080818384898886858685868380808385AE
:100210008583818B9193928F8E8F8E878683838542
:10022000847F7E7E7F84878684828083807B7977CB
:1002300074726E6B696A6C707272747476777876A9
:10024000777A7A7A7B7B7C7F817F7F7F8186837ED2
:100250007C7E7D807F7F8384858787909695989428
:1002600095909188878381827F818086868A8A891A
:10027000868685827E7875737574747274767674EA
:10028000747576797876747372717072757879771F
:100290007878787C7C7F807C7D7F7E7B7B7A838492
:1002A0008583939C979F979E999A908A8D878A7F42
:1002B000807A8183848380868A8F817F7D7E7A7332
:1002C000706E7270706E6E72747675787A7C7A78F1
:1002D00077757775767677777778787B7A7B7D7E9A
:1002E0007B7A7C81807F7F868996958F999A9E9371
:1002F0009791918E85827D847B7B797C80818383BD
:100300008D888685847E7879747473737070747246
:1003100074757A7A7A7B797A77787372747271727B
:10032000737274777A7A797E8085848883858C93DA
:10033000938B98999C92969794958C8C878B827DC1
:100340007E7F7E77797E807A7C84857F7C807E7AD2
:1003500076767675736F6F73757171767978767856
:100360007879797877797C7B7D7E7D7B7C7F8083D3
:10037000838282828280828A918B8C9396948F94DE
:10038000908F898A8A868782827C7F7B7B79777946
:10039000777B797C7A7B797A7B7C787A777A6C80C8
:1003A000967867688A8A75667A89806D6A808277AE
:1003B0006778827F737682827D797E8384807E8671
:1003C00089898688928F8B899388868C8F8E848981
:1003D0008A8B838283868483837F7E7C7D7C7A780C
:1003E000787978777777787777777675757776779E
:1003F0007879797A7A7B7B7C7C7B7C7D7E7E7F7F43
:100400008080808183848484818185878786888BAE
:100410008B8988898A8A8989898987878788878457
:10042000848382807F7E7D7D7B7A7978777677770B
:10043000767575757675757676777879797A7A7B4B
:100440007B7C7C7C7D7E7E7D7E7E808182828181C4
:10045000818283848485868686858586868787884B
:100460008888898A8A8A8989898988878584838214
:10047000807F7D7B7A78777675757473727272720D
:1004800073737476777879797A7A7B7C7E7E7E7FD7
:100490007F80818282828282828282838485848339
:1004A0008383828283838384848585868788898900
:1004B00089898989898989888785848382807F7EE3
:1004C0007D7B7A79777676747472727273747475D0
:1004D00076767778797B7C7D7E7F7F808081818155
:1004E000807F8080818080808181818182828383FE
:1004F00084848484848485868585858686878687AA
:10050000878888878685858585838281807F7E7DB3
:100510007C7C7C7B7A79787776777778797979794A
:1005200079797979797979797A7C7D7E7F7F7E7E18
:100530007D7E7E7E808081818282828282828384AF
:10054000848484858686858585858483828181816E
:10055000818282838383838383838383848483836D
:10056000828281817E7B79797C7B78757C7E7975CE
:10057000767D7F7B77787B7F7F7B77787B7E7C7BCC
:100580007B7D807E7D7E808183838280808082806F
:100590008282818180818182818280818181818149
:1005A0008181828282838484838484858585858316
:1005B0008483848284868583817A797778807F8238
:1005C0007F807E7F7B7A797E807D817B7A7E7A7662
:1005D00071727A7A746D7383978B716C7E938E745B
:1005E00060748A948D7C77878F87766F77868B820D
:1005F0007A758086887F797B7E87858283888B87E2
:10060000888586868A8B8A857E807D7E807E7878C6
:100610007A7C7E7C7C7D7F8283828180807F7D7AF4
:100620007878787878757373727376767577797869
:10063000767779797A7C7E808080818285868886CB
:10064000888B9296949492979897938F8C898783AE
:100650007E7B7A7576777677777B7E81888B8887C5
:100660008988827C77737272716E6C6E6E6E6E6E3C
:100670006F6F72747677787B7C7D7E7B7774727314
:10068000777D7E8187929D9C9F9D9C9E9B9A908B5F
:100690008482817C7F7778797D82818784878C9141
:1006A0008C8482797878797771747577787A7874B0
:1006B00075757573716E6A6B6C6E71727576797D16
:1006C0007D7E8182868A929D9895918F908C938869
:1006D00083807E8280867F7E7F838A8B8E878583E0
:1006E000898D8681797674777C7A7C7C7D7E7F7E2D
:1006F00079757371717474706D69696B6E717375EE
:10070000757475777E838B9F9899968E918997875C
:10071000827F787F788B81868B88938D9588817F87
:100720007A7E80867A7C7C767D848A817F797376F6
:1007300077746C6E6D6A6F757470716C6C727475B1
:1007400074726C707A838B9F999495898E8591854C
:1007500081847B878094898A8B8089828C7D7A7959
:100760006D767A888486877D817F837D7D7A7176B8
:1007700076787574726D75797A7B77716E75767827
:100780007B7A797982899B9A91917C827883837D27
:100790008475817E8D8E8A8D7B8079818381857839
:1007A0007B7F8A8C8E8C7B7A74777D81837C7D784D
:1007B000777A7977727575757A7878757777767CC8
:1007C0007C7E808D978E99857E77737D758B7C80FE
:1007D00080808D869282827F787F7D8883868986DD
:1007E0008D8C8F86817A72787B8283817A6F706F2D
:1007F000707473726F71707176787B7A7D7D7F8B88
:100800009B9997907C7A757E7F878A7E8680878980
:100810008E8D808176797C838684898486898B8499
:100820007E787073798285878074716F7074777544
:10083000716E6B6C73787A7C7C7A82979A9B9884C1
:100840007D767D828A94898A8384888C908481765F
:1008500073767B84848B8480817E7F7C7A737277CD
:100860007A8285827B74706E747A7C7B77716F7309
:10087000797D82807D848E919391827A74767A8656
:10088000908C8E858281858682837A77787B828739
:100890008E8988847D7C7A79777A7D7E83817E7962
:1008A000747172787B7E7C787372757980848382B0
:1008B0008A8F8E9387807875767B88878B86817DFB
:1008C0007C7F7D817C7878797D828A8C8E8B837D1C
:1008D0007A7A7C8184868885827D78747577787B46
:1008E0007B7773717072787B7F817F888F91938C17
:1008F000817877787E898A8B87827D7C807E807CF8
:100900007777777B81888C8987807B7C7B7D8085EE
:1009100086878883817C7978787A7B7C7875737117
:1009200072777A7C7C797B878C9291887E777778D6
:10093000848B8C8B84807F838587857E7A787A7F91
:10094000878D8E8C847C79787A7D808182827E7D91
:100950007A76757576797B7A7774717173787A7E29
:100960007D7A7F898F9494897F777579838B8C8C3E
:10097000868282848788877F7A77777F8A91928F31
:10098000867E7A78797D7F7F817E7C7C77747271B8
:10099000717578787774707074757B7E7C7C7B82DF
:1009A0008E989A988C7E78757B818A8A8A868486CE
:1009B0008688847F78727377838D93928D837D7917
:1009C000787B7E80818281807F7976737172737685
:1009D0007574717072767A7C7C79797E8B939C9930
:1009E0008F8378787A848A8D8D88858488898983B5
:1009F0007A7470737C868E8E89817B78787A7C7E1F
:100A00007E818283827D78747373777A7B79757146
:100A10007274767C7B7B7A7A828F949892837A73D5
:100A2000767A86898A8A8587888D8A89807776769C
:100A3000808891918C87817E7B7B7879797C838596
:100A4000847E78706F717377787772717072767751
:100A5000787677798795989A8C807574797F8B886A
:100A6000898382858B928D8A7E777679838A928E2E
:100A70008F888685827E7776747B8184847D756E8F
:100A80006E6F747776746D6E6D7176767773787A33
:100A90008B98999A8882777B82858F85867E8489D8
:100AA0008F9389847473747B85868B838583888C0C
:100AB00087827473737C8587867976717479797887
:100AC00072716F7375777774757178819299989454
:100AD000818078818387888084818C8F938E837EC8
:100AE000757A7D82827D7C7A82868E8C81786F7128
:100AF000768084827E7878787B797875737577795B
:100B00007877747475787F879393938D85828084CA
:100B100081817E7B7F838B8B8D8782807E808080AE
:100B20007C7A7C7F868A8C86807D7A7C7D7C7A7AD2
:100B30007C7C7F7D7A76747476787876757474753B
:100B400075767A809194949287848085827F7C7573
:100B50007A7E86898C8D8888868584807B77797E6D
:100B60008186888683838282817F7D7D7F7E7D7A78
:100B7000747273757676747372727373737172773D
:100B8000859293938E898B8B8D87817C7B818582E7
:100B900081807E82898E8B87847F8185858281801A
:100BA0007E8286807A77787B7E7D797573727373A7
:100BB000717073777B7C787777767679818B908983
:100BC0008B8A898F8F8A84807E8083827E7C7D80E1
:100BD00084868786868686878685807D7D7D7D7EE8
:100BE0007B7B7E80807E7C7A7C7B78767474767862
:100BF0007878797B7A7D7E7C7A797A797F85828232
:100C00008582848A8988888685878885838383838B
:100C10008585858584838282817F7D7C7C7C7C7DCB
:100C20007D7E81817F807E7D7E7F7F7F7C797877EE
:100C3000777776757575757778777878797C817F31
:100C40007D818183888A878A8A878B8E8B8B8B862E
:100C50008789878684807F807E7E807F7F82817F78
:100C60007E7C7A7E7F7D7D7C7A7C7C7979787575D7
:100C70007777797C7A7A7B7A7A7C79797C807E7CCA
:100C80007D7C7F8788878986858C8D8C8F8C898BEE
:100C9000888382807E80827F7F7E7B7A7B797A7C6C
:100CA00078787C7C7B7E7E7E828280817E7C7E7D6D
:100CB0007B7D7D7B7D7F7D7E7E7A7A7A77787D7C79
:100CC0007A7D7D7D848381848684878683868683FE
:100CD00086878284847F80827F7F817D7D81807F03
:100CE000807E7D80807F80817F80817E827D748216
:100CF0007E7E85737D7F787F77787C747777737657
:100D0000797D80807F7D83878887838285878483C0
:100D100083838385848283808183828183858283A8
:100D2000817E847E7E837E807D797B7B7E807D7EDE
:100D30007B7D7D7879797B7A7A78787A7777777422
:100D400074757A8184828283888D8E8B888686876B
:100D500085828182868887848384868684807F7F5B
:100D60007D7B7875777A7D7D7C7B7C7E7F7F7E7EC8
:100D70007F848481807D7D7F7F7C7B7A7A7B79769E
:100D80007577787979747680898F8B8787898A825D
:100D90007B77798083807E7F848A8A87848589882F
:100DA000827C797A7E7F7E7D7F838784807E7F814F
:100DB000817D79797C7E7D7B7C7F8384807B7A7F5B
:100DC0007F807B737476777A8281818A83817F7555
:100DD0007374727179818D928D8B8A8A87807A780B
:100DE0007B80818183868C8C85807D7D7D7B7877FF
:100DF0007B808484828182817E7A77787C80807F08
:100E0000808284837F7B7A7A7A79787B7F838584FA
:100E10008484807E7C7C7D7E8180818988878580BA
:100E20007D7C7A767677787D7F888C868681807CDB
:100E30007874747A7F8487878787847E7978797CD1
:100E400080808386888783807E7D7C7B7B7B80849B
:100E5000878684827F7C7876767A7E818384858398
:100E6000807A7878797C7D7F8286878583807E7C96
:100E70007C7B7C7E8185888986827E797876787C89
:100E80008185878785817C777576797C7E8184846E
:100E900083817E7D7D7C7E7D80858081848484814C
:100EA0007C7C80828281828384837F7E7F80827F3C
:100EB0007C7C7C7D7B797B7E817E7B7B7B7B7D7E6E
:100EC00080828382807D7D7E808183838385838110
:100ED0007F7F8081828283838483807E7E7F808007
:100EE0007F7F7F7E7D7D7F8080807F7E7D7D7D7F1B
:100EF0007F7F7E7E7D7C7B7A7B7D7E7F7D7D818416
:100F00008585858685827F7D7C7C7D7D7E7F7F80DB
:100F1000807F7F7F808181818181818283848383BF
:100F2000838282817F7D7D7D7E7D7D7D7D7E7D7DD9
:100F30007C7C7C7D7D7D7D7E8081828282838282BD
:100F4000818180808080807F7E7E7F7F7F7F7E7DAD
:100F50007C7C7C7E7F7F808080807F80818181819E
:100F60008181828383848483817F7E7E7E7E7F7F76
:100F70008081807E7D7C7B7C7D7D7E7E7D7E7F8092
:100F80008080808181817F7F7F80808080807F7E64
:100F90007E7E7E7D7E7F7F7F7F7F80818182838456
:100FA000848483828282828281807F7E7E7F7F7F33
:100FB0007F7E7E7E7D7C7B7B7B7C7D7D7D7E7E7E61
:100FC0007E7F7F8081828384848383838282828206
:100FD00081817F7E7D7C7C7C7C7D7E7D7D7D7E7F36
:100FE0007F7F7E7E7F8081818283838282818181F7
:100FF00081818181818080807F7F7E7E7E7E7E7EFA
:101000007E7E7E7E7E7E7E7E7F80807F7F808181F1
:101010008181818181807F7E7C7B7B7B7D7D7F7FE9
:101020007F7F7F7F7F8082828384838383838282AA
:10103000828282828282807E7D7D7D7F7F7E7D7CBA
:101040007D7F7A7676797B7D7D7D7F8182858682C4
:101050008182818285878886827D7D7C7C7E7D7E83
:1010600080807D7C7772707B8D8D867F7B7C7D7BA5
:101070007980888C8B8782807F7C7C7D848A8A863D
:101080007F7A78777677787A7C7A747273777983D7
:1010900090928B807B797D81858B8F908B847C7AFD
:1010A00079787B818487867F78757576797B7D8179
:1010B000807C787473767B7E82868E908C81787744
:1010C0007D848A8D8E8D867F7976767A7F828688FA
:1010D00086827B75737376797D7D7B797775787C75
:1010E0007F878E8D837C7A7D818386898B8B887FB9
:1010F0007B7B7B7C7F83878A87827F7B7A7A7A7B04
:101100007B7D7D7B767776737275777B8285898C24
:10111000867B797B80898E8D8D8B86837C7A7D82A0
:10112000878A898786837C7877787C7C7A777774DE
:1011300073716F707378797A797D84888A8C8682EE
:101140008384888E908F8D8A8785817F8182838535
:1011500085837F7A787879787878797877767372FA
:1011600073757776787A7B7A7B7C858E92958C8284
:101170007E7F83888D8C8E8D88837E7A7B7F818431
:101180008787847E7B7A797A7B7C7C7D7C7976719B
:10119000707372707276777A7C7571727A8D9D9D9C
:1011A0008D817C7E8587898C9293918B847C7878E5
:1011B0007D868C8B85807C79777574777B7F7E7A52
:1011C0007471727476767577767371727A7E7D78C3
:1011D000787C8A9D97887E7A7C8488878A8A8987AA
:1011E000847D7976767B83888B89827E7C7B7B7C11
:1011F0007D838A8A847D7776797878787877767334
:101200007070727479787575829D90847B767C831A
:1012100088858C898B8986807E7B7981858A8A877F
:1012200082807E7E7C7C7C818689847D78797C7CD2
:101230007B787878797876737274797B7874758333
:101240009F93847B747C848A848B858888857F7B4C
:10125000787781838A898680828180807C7C81877F
:1012600088857C78787B7B7B7776777774747374EA
:101270007779797878768A9C8C877B787F898A865B
:101280008D858C8A887F7C777983828683807E8136
:101290007E7E7B797C818586827D7B7D7E7E7B7870
:1012A000787A7C7B787677797B787576778C9F8A6D
:1012B0008678777F8787838D858D87837A7A767A1C
:1012C000828388858482827E7E7B7C7F8485868003
:1012D0007B7A7B7C7A7A76797878757676797B7882
:1012E00077787A84A08E888078808588828C858DB6
:1012F0008C8780797776817F85848382807F7D7CEF
:101300007B7E818284827F7D7D7F7C7A777878780E
:10131000777676777A7A7875767695988988777EF3
:101320008389838787879189867F7A737D7F828887
:10133000848384817D7D797A808181827E7D7E7DBA
:101340007B7A75747777777676767C7C7B7879781C
:101350008C9E8B8B7B7C868986818681908B877E19
:101360007A767A7E7D827F828483807F7C7B7E7F9B
:1013700081848282817F7D7A7776777676767678B9
:1013800079797876767A7C969489887983868A8248
:101390008583879289877C7A787F7E7F807F858529
:1013A00082807D7A7C7C7D80807F807F7E7B77756C
:1013B000757676767578787C7C7977797A869A8B6B
:1013C0008A807B8787898285808C8D89837B797BE6
:1013D000827E817C80848585827C7B7E7E81807E0E
:1013E0007F81817F7A7674747475747376787B7874
:1013F000767679798E94898C7F84898C86858384AE
:101400008F888A817E7B80807E807B8183868481B9
:10141000797A7C7D817D7C7D7D7E7E787575747426
:10142000757475787A7A7B7A7A7B86938A8C8280D7
:1014300086888A85868089898A877F7C7A827F856B
:101440007E7F818186827E797C7C80807D7B797CB9
:101450007C7C77757271747475747676797C7D7F17
:101460008492898F89848A878F898D8386868388F1
:1014700080817B7E7C807F7E807C807E7F7E7D7E87
:101480007B7E7B7C7A7A7A797A797A7776777678C6
:10149000797A7A7C7E7E7F81878687858687898B2D
:1014A000898A8787878685848483838180807F7FFC
:1014B000807E7E7E7E7E7E7D7C7B7A7A7B7A79786A
:1014C00078777776767777787979797A7A7C7E8289
:1014D0008282858587898B8A8C8B8A8C8B8A8A8885
:1014E00086868483838281817E7D7C7C7B7B7A7807
:1014F0007977787978777877777878777777777872
:1015000079797A7B7C8282828485868A8C8B8D8DA8
:101510008D8E8D8B8B89888885848482807F7C7A70
:101520007A79797A78787776767777777878797A3A
:101530007A797979797A7B7B7C7C7C7D7F818181EA
:101540008284868B8C8C8D8C8C8C8C8B8C8C8989FA
:101550008582827F7F7F7E7E7D7C7A7877757475C9
:10156000767879797A7B7A7A7978787879797A7AEB
:101570007B7A7979797B807F828486888B8C8B8E4D
:101580008D8E8F8E8D8C8988878684838180807DE7
:101590007C7C7A7A7A797A797879797A79787978B3
:1015A000797A7B7B7A7A7979797877777778787AAC
:1015B0007D8180808283868A8D8C8E8D8E8F8E8DAC
:1015C0008C8B8A8A8986838180807E7E7D7B7877FA
:1015D00076747577787B7B7A7B7B7C7E7B78787A78
:1015E0007D7E7D7B7977767777767776767A7C7C69
:1015F0007D8083868A8C8F91909293918E8C8A873E
:10160000878887888583827F7D7D7C7B7A7A7A7ADA
:1016100078777876767879797A7B7C7B797979793D
:101620007B7B7A7977757473727375777B8081822F
:1016300086888A8E918E8F8F8E8F8E8D8D8B8788E8
:10164000888587878484827F7E7E7D7F7E7B7B7991
:101650007878797A7A787677777778787879797907
:101660007878767574747475767677787A7B7E83FD
:1016700089878889898C8F929193908E8F8B8A88A5
:10168000888787858181818081807E7D7B7B7C7D51
:101690007B7C7B7A7C7C7C7C7C7B797979797978A2
:1016A0007978787879787777767678797A7A7877BA
:1016B00077797B7E80818A8B878B898B8D8F8F8DCD
:1016C000908A8E8D8A8B89888586817F817D7F7FB8
:1016D0007D7C7B7C7B7D7B7A7B7A7D7F7F807E7E41
:1016E0007B7B797778757674757778797778767685
:1016F0007776777576757578777B7C7E818387932F
:101700009995998E908F92928E9082898386898402
:10171000847C7F7980807C7F7678777C7C7B7B750E
:101720007C7C808484827D807C807E7B79757879E6
:101730007C7978777579797978767675777679782E
:10174000797A7B7E7C7E7D8082838D9C9495908748
:101750008E8B93868B7F838B8691838577807D7F2D
:1017600082777B747E7E837E787C778380847E7DA7
:101770007D7F8880807676787B7E79797278787ABA
:101780007974716F77777D78757374797A7C797BEA
:101790007C81848383818585959F92978688898DB6
:1017A0008C8187778D889087807A76857885747923
:1017B0007780827E80727C78817E7D74747C7D8867
:1017C000817F7D7F7F7F7D767A7A7E807F7A797A4E
:1017D000797C78757577797C79747475787B7B7A88
:1017E0007A797A7D7F8184868EA0939589848B8C8B
:1017F0008E828B7E8E8F908A82807A887B817679AA
:101800007B83827D7C7279787C767671777E80802E
:101810007C7A7D80807D79777A7F81827E7D7D7EF6
:101820007C7A7775797B7D7D7C7B7B7A797977771C
:10183000777B7F807D7D8080828282919E94968856
:1018400085898C8985867F8E8C8D84817A7E827B4A
:101850007E787B7D867F7F7A797E7E7C7A79777EC3
:10186000807F7E7D7B8081807C77777C7D7C7C7AAD
:101870007C7D7E7A7875777A7A7B7C7D7F807D7BB4
:1018800079797A7B7A7B7D81828282828282858469
:10189000879498958F8987898983827F82878B88AF
:1018A00084807D817D7B7877787F807F7E7B7A7C6A
:1018B0007B767574767B7E7D7D7C7D7E7D7B808076
:1018C0007D86838082828086827E807E7D7F7C7919
:1018D0007D7C7C7C79787B7674757373797A7B7E7A
:1018E0007D7C7E8081858383868889959291908A8C
:1018F0008B8A89828782878B8986837F7D7F7978AF
:10190000777A7B7F7C7C7C7A797A787678787B7F33
:101910007F7E817F807F7E7C7E7E8082878E8787B0
:10192000817E8081807F7F7D807E7C7976747777F1
:1019300077787775757371727273787E7F7E7D7F2D
:101940008183858488898A8B94959592908D8B87E5
:1019500085858487878785847F7E7C79777677798C
:101960007D7C7B7B7B7A7A787778797A7C7D7E81C7
:101970008081817F7E7F7F7F7F8080828285888655
:10198000837C7A7B7E7D7F7F7F817F7B787673759A
:101990007676797B7B7C7B797877787C7E80868491
:1019A0008383838587878586868A90918E8D8988B3
:1019B0008A848180808286858383807E7E7A767722
:1019C000777A7D7F7D7E7F7F7D7A7777787A7D7D60
:1019D0007E8080807F7D7B7B7C7C7D7D7E80818026
:1019E000807F7F7E828983807C7D80837F7F8182F0
:1019F000837E7A797B7A7C7B7B7C7D7B7B78777935
:101A00007A7A797D7F82807C7E81838684828587D5
:101A10008D93908B8A87888982818284868883814E
:101A200081807F7E7B7A7D7D7E7E7C7A7C7B7B7BEA
:101A30007877797B7B7C7C7C7E7E7D7C7B7B7C7EEF
:101A40007E807F7F81817F7F7D7F80869085817E84
:101A50007D81837F7D817F828179767877797B79BB
:101A6000797D7C797672757A7B7D7D7F85857E7ABE
:101A7000808487878382888A8C938F8C8C8B8686E0
:101A8000817E82858686858081807C7B7978797D60
:101A90007D7F7F7D7D7F7D7B7A77787C7C7D7F7F7E
:101AA0008182807D7D7C7C7E7E7E80818284827F3F
:101AB000807E7D7D7D7C828D87837D7A7D817C7932
:101AC0007F7C7F807B777977787C78797B7C7B7C67
:101AD0007A787D7E7E7F80818583808584878682FB
:101AE00082858786888D8F8E8F8783827F7D7E7F9C
:101AF0007F848584837F7B7B7A77787A7B7F828102
:101B0000807F7C7C7B797B7C7D80828282817E7DF4
:101B10007F7D7A7B7C7B7D7F80807F7F7D7B7A7AF7
:101B20007B7A848A84827E7E82857E7B7B7B7E81BB
:101B30007E7B7D7E7E7F7C7A7B7A797D7C7C8181D9
:101B40007F7E7E7E80817F8181858381818183828A
:101B5000847F808B94938C86808285837F7D7F8633
:101B60008D8A837F7D7E7F7D7776797E83837F7C80
:101B70007C7B7C797A76757B7E81807F7C7F7F7DA4
:101B80007C78787A7F7F808180828282818B887F57
:101B90007C787B80827D8084817F7A74727676798E
:101BA0007C7A7E837E7979787A7F8183818286854B
:101BB000817F8083868582828584848282828386F7
:101BC00083817E7F82818283898C8B8885818183DA
:101BD000828282828484837F7D7B7B7E7E7D7B7C10
:101BE0007B7B7A7A79797B7C7C7B7B7C7C7C7B7B46
:101BF0007B7C7E8182807E7E8080807F7F807F7EF6
:101C00007C79787A7D7C7B7D80827F7B78797C8013
:101C1000827F7E82868382818081807F81848182AF
:101C20008484858382818181808180828685837F8F
:101C30008184807E7F85878A8A89888482807F7E6E
:101C40007F8382807E7D7B7A79797B7D7D7D7D7CC3
:101C50007A7A7977797C7E7D7D7E80817F7E8082B5
:101C60008180807E7C7D7E7C7C7D7E7F7F7E7D7C96
:101C70007A797A7B7B7C7F808081807F7F7F7F8089
:101C80008080808181818283828183868584828233
:101C90008285868381838586838182838382817E18
:101CA0007E7F7F7E7D7D7D7F81808082848380803A
:101CB0008080808182828382807E7D7D7C7C7E802C
:101CC000817E7D7D7D7C7B7B7C7D7C7E7E7C7C7C47
:101CD0007D7D7C7B7C7C7D7D7C7B7B7C7F80808133
:101CE0007F7C7A7B7D7E8181817E7B7B7B7E828413
:101CF0008483808080807F7F8183848484848483C4
:101D0000838283838383848583807F8083848482AA
:101D10008283827F7D7E7F82817F7F7F7F7F7E7DCA
:101D20007E80808283817E7D7F81817F7D7C7E80BD
:101D30007F7C7B7A7B7D7E7C7A7B7D7E7E7D7C7CDE
:101D40007E81807E7D7D7D7E7F7E7C7C7F808282A9
:101D5000818080817F7F8082838381808080828276
:101D60008180807F807F7E7E7F7F7D7D7D7E7E7E89
:101D70007F8181807F7F7E7F808282828283848355
:101D80008381807F7F7E7F7F7F7F8080807F7F8059
:101D900081817F7E7E7F80817F8083848483838333
:101DA000817F7E7D7D7C7B7B7B7C7D7F7F7E7E7E5D
:101DB0007E7D7D7F8081818181828282818181811E
:101DC00081807E7D7D7F81807E7D7D7E7F7E7D7C2E
:101DD0007C7E7F807F7F7F80828181808080828205
:101DE000817F7F808181807F7F7E7F7F7E7C7B7C07
:101DF0007E7F7F7F808080807F80818282818080E3
:101E0000818281808181807F7E7C7C7C7C7C7E7EE7
:101E10007D7D7D7F808281808080818281808081C4
:101E2000828282818081818180807F7F7F7F7F7EAF
:101E30007D7D7D7D7D7D7E7E7E7E7E7F80808080BF
:101E4000808181818281818181818180807F7F7E8B
:101E50007E7E7E7E7D7D7D7E7E7E7E7F7F7F7F809F
:101E60008081818181828282828282818080807F62
:101E70007F7F7F7E7E7D7E7E7E7E7D7E7E7E7E7E81
:101E80007F80818181808080808080808080808050
:101E9000808080807F7F7E7E7D7D7D7D7E7E7E7F5B
:101EA0007F80808080808182828282828281818123
:101EB000818180807F7F7E7D7D7C7C7D7E7E7E7E3D
:101EC0007E7F7F8080807F7F7F7F7F808181818117
:101ED00081818080807F7F7E7E7F7F7F7E7E7F7F0F
:101EE0007F7F7F7F7F7F80808080808182818181F2
:101EF00081818080807F7F7E7E7F7F7F7F808080EA
:101F00007F7F7E7E7E7E7F7F807F7F7F80808081DF
:101F10008181818080808181808080807F7F7F7EC1
:101F20007D7D7D7D7D7D7E7E7F7F808080808081C8
:101F3000818181818181818181818180807F7F7F99
:101F40007F7F7F807F7D7B7D7F81807F7D7D7F80A8
:101F5000807F7F7F8081828281807F7F7F7F808082
:101F60007F7F7F7F7F7E7E7E7F7F7F7F7F7F7F8083
:101F7000807F7F8080808080808080808080807F64
:101F80007F7F808080818181807F7F808080807F53
:101F90007F7F7F7F7F7F7F7F80807F7F7E7E7F8050
:101FA0007F7F7E7F8081807E7D7D7E80807F7E7F43
:101FB000808081807F7F7F7F7F7F7F7F8081818125
:101FC00082807F7F8282828181808081807E7F7F0C
:101FD0007F817F7E7E7D7C7E7F7F7E7E7F82828111
:101FE0007F7E7F808282827E7C6F7C988F776B7A07
:101FF000888683807C777A82807F7D7B7B7E8282ED
:102000008382807E8284838383807E8187847B78C1
:10201000777B80827D79797A7E81817C7A7C8488E5
:102020008A867D75788186827B78787F84857F7AC1
:102030007A808686827E7C7D8184807A7A7C7F7FAE
:102040007E7E7E7E808483808184847F7E83848084
:102050007F82827D7E81817E7B7F827E7D7F807E8E
:1020600080817F7B7C83837D7A7D80807F7F7E7D86
:102070007F83827F7F7F817F80827D7B7D817E7C6D
:102080007D807F7D7E80807E7F7F807E7E8181825D
:10209000828080807F818281828181817F7D7E803C
:1020A0007F807D7E7F80817E7B7C7F7D7C7D848147
:1020B0007C7F8487827F80817D7D81817D7C7F8024
:1020C0007F7F7E7D797B83837F7C7E817E7D838124
:1020D0007C7D81827F7E80817B7C83818081838403
:1020E0007E7F82807D7D7F81817E81817D7D7F7EFF
:1020F0007D7E7F80818080807D7E807F807F7F80ED
:10210000817D7B7C80827D7A7B7F86847F7D7D7EE6
:102110008181817F7B7D8284837E7D7D81858280BC
:102120007C7F8386837C7D7F8182807D7C7B7D81BB
:1021300081807D797C8385817D7D8183817F7E7DAA
:102140007F7E7F818080817F7E7F7E7D7D7E827F9E
:102150007F817F7D7D7D80817D7C7D7C7F8384818F
:102160007D7E81838282827F7D7E8182817C7C7E76
:102170008185827C7A7B7F83817E7C7D7D81848268
:102180007E7B7C8185837F7C7C7F82837F7C7C7E61
:10219000808181807D7C7C7D807F7F7F7C7E808252
:1021A000827F7C7C7E818584817E7D7F8384827E2C
:1021B0007C7D8184827F7C7D8183837F7E7F808123
:1021C00082817E7D7C7D8081827E7C7D8082817F1C
:1021D0007E7E7F7F80807D7B7B7D807E7C7A7A7C2B
:1021E0007E80807F7E7E80828483828181838484DE
:1021F00082828385858583828181838483817F7EBA
:102200007E7E7D7C7B7A7C7C7C7C7B7B7B7B7C7B11
:102210007C7C7C7C7C7B7B7C7B7C7B7B7D7C7C7D01
:102220007E7E7E7D8083838180808284878A8C8B82
:102230008B8B8C8D8E8E8D8C8B8A8885807D7B7A26
:1022400079787877777776767675757677797A7B19
:102250007B7978777A7B7B79797A7D7F7D7A797BD8
:102260007D7F7E7E7E7E808283828384888C8E8E3C
:102270008D8E8F9192918F8E8D8C8A85817D7B7BC7
:102280007B7B797776777879787677797B7D7C7ABE
:102290007777797A7979797A7C7B797777797C7DA8
:1022A0007C7B7C7E7F7F7D7B7B7C80817F7E7E8252
:1022B00086898A8B8E92959694929190908F8C8736
:1022C0008482807D79767575767878787778797A72
:1022D0007A7A7B7B7D7C7B79777677777677777870
:1022E000797A7A7878797C7C7D7C7C7C7D7E7E7E38
:1022F0007E808385888B8C8D90939596959695930B
:10230000918E8B878583807C7977757374757576EC
:102310007779797A7A7B7B7C7D7D7C7B7A78757422
:10232000747373747576777776777A7B7B7B7D7E33
:102330007E7E7E7E7F8083878B8C8E909395979711
:1023400097979796928E8A8784807C79787776742F
:1023500074747678797A7B7C7D7C7C7D7E7C7B79DD
:102360007876747272727273747475767677777920
:10237000797A7D7E7F7F7D7E8082898D8B8F94961A
:1023800097969998979793928E8B86827F7D7A798C
:102390007776777778797A7C7D7F7E7E7E7C7C7A93
:1023A00079787776757371707071717273757777EC
:1023B0007775737575777A7D80808083898C888C3A
:1023C000949797999D9E9B9A9592908B85817F7DFE
:1023D000787877787776797B7D7E7F818586848330
:1023E00083817E7B7775716F6C6C6B6B6B6D6F71BE
:1023F000727374757778787778797A7B7B8088893F
:1024000088919795969B9D9B9C9C9894918B878295
:102410007E79777574757575787C7E7F83868687FF
:1024200087878583817D797572706E6E6D6D6E6E36
:10243000707173747676797B7A7A79777779777633
:1024400082858088929291989F9A9A9D9B97928E6E
:102450008A837E7B7B7573777875787F807F8285B2
:10246000868586868481807F7A7675736F6D6D6EC2
:102470006E6F707272737576777879787778787610
:10248000767F868185919190959E9C9A9D9B959053
:102490008F8C857F7F7F7976787976787D7E7E8157
:1024A000858584858684807F7D777373726E6C6E7C
:1024B0006E6F727476777978787B7B7B79787879B0
:1024C00078797E8683828E908F939B9A96999A953F
:1024D0008E8D8A837C7B7A7471737674777F818228
:1024E00086898886878785817F7D777474726F6F10
:1024F0007171717476767879797A7B7C7A7A7A766A
:102500007375777F817A888F8B8D9699929799953D
:102510008E8D8C847D7B7E7874777B797A828484BF
:10252000878B89878787837E7D7B767372706D6DDD
:102530006F70717477787B7C7B7B7D7C7876777528
:10254000717178837F7B8F918A8F9B9A91979992F3
:102550008989897F797B7D76777C807E808889896F
:102560008B8E8B8685827C7877746E6C6D6C6C6DCF
:10257000717375777B7B79797D78767977747577E8
:1025800075778B8A7A939A90909C9C9091928F8386
:1025900081837E73767C77747E8780858E8E8A8A2F
:1025A0008D87807E7B767172726C6C717270767BB7
:1025B000797A7E7D7978797775737475727278859A
:1025C0008C7E90A09291999D8D8C8C867C797C7864
:1025D00072737C7777828B878A92938C8B8A867DC5
:1025E0007C7A7570707370717578777B7E7D7C7E78
:1025F0007D797675747270707171777B8D87829A30
:1026000096919098908687858279797C7A757A827E
:1026100082868E918D8E928B858480797676737288
:1026200072767576787C7C7C7D7C7B77777774712D
:102630007372717375768E8B7C969B8F8993918460
:1026400081818378737A7D767B8387888B90908F66
:102650008F8D87827F7D7877767777797B7B7C7C9F
:102660007D7A7777736F716F6F70716F7579767F21
:10267000988E809A9C8C848F8D7F7B8084797581E5
:10268000857B80898D8889908C8785837F7A78780F
:10269000777575797A7A7C7F7D7C7C7C76737272B3
:1026A000716F71737578787C81939481959C8E8419
:1026B0008E8E807D7E8379767E857C7D8B8B8488F3
:1026C0008D868281817B75767A7574787B787A7D48
:1026D0007D7C7D7C7B7876767474747877797D8068
:1026E00083949183999689858E8B7D7C8081757585
:1026F0007F80777F898684878A868383817D797AC4
:10270000797676787A797B7D7C7C7D7A7878797534
:1027100074757478787A7D8A93848D9D93898D926F
:10272000857E81827A767B7E797B848786888B8A98
:102730008682827D777778747172737576777B7B0A
:102740007A7A787A797778787778797B818F8785C4
:1027500099968B8D958C8283847E767B7D7778802D
:102760008383858A8A888787847D7C7B767374736C
:1027700073737577787A7B7B7C7B79787879767AD6
:102780007D818C818A958C8B8F92888787847D7CD4
:102790007D7978777D7E7F82868786878684807E36
:1027A0007B797675747271737476777A7B7C7D7DB4
:1027B0007E7E7C7C7F808D8180978B878E948986BE
:1027C0008B86827F817C7A787D7D7A808584848700
:1027D000858381807D7A787673727273707171737C
:1027E000727478797A7B7A7C7D83937D899C8A89DF
:1027F0009397888A8E8B848384807A7C817B7C8388
:10280000847F82868280817E7B7878737272717019
:10281000707071747578787B7E787C82809081840A
:102820009A8A899496878B8F898683857E7A7B7E28
:10283000797A80827F82858381817E7C7C7B7777B9
:1028400075716E6E6D6C70727477797C7C7C7E8134
:102850008F7F859C8C8B95968A8C8F888685857FCB
:102860007D7E7F7C7D81807F83858181837E7C7D71
:102870007A757574706F70706E6F727474777A7A1F
:102880007A7D808C8383988E899294898C908A87B4
:1028900087868080807F7C7C7F7E7C82838081862F
:1028A000827F807D777574716F6F706E70717373D6
:1028B0007579777A7E7F868C848D938C8D93928EBA
:1028C000908F8B898783827F7E807D7E7F7E7E80D6
:1028D0007F7E807F7D7D7B79767573706E6F6F6F85
:1028E000717273757777797B7E82888A898D8F8FF5
:1028F0008E9191908F908D8A8A8484827F7F7D7C57
:102900007D7D7E7F7F7E7E7D7D7C7A78777575721A
:1029100070707170727675767876797A7B7E828641
:10292000878B8A8D908D8F91908F8F8F8E8C8887DB
:10293000848081807B7B7B797877777877787977EB
:102940007779767676767676787878787978797C0D
:102950007C7C7E818383848989898D8F8F919393F9
:10296000908F918B8586847F7F7E7C7A7A7977754C
:102970007578757578777779787879797A79797AD9
:102980007B7A7A7B7C7D7E7F81828183838485854F
:1029900086868787888887878685848382828281E6
:1029A000808081807F7F807F7E7D7D7C7B7A7A7A4C
:1029B0007A7B7C7C7B7B7B7B7A7B7C7D7D7D7E7F59
:1029C00080808081828283838484838180807F80F1
:1029D000808080807F7E7D7D7D7D7D7F8081818107
:1029E00081838282828283828181818181828181CD
:1029F00082828281807F7F7E7F7F808181808080D4
:102A00007F7E7E7D7D7C7C7B7A7A7A7B7B7B7C7D06
:102A10007E7D7D7E7E7F7F8080807F7F80808080C6
:102A2000818282828282838486868686868484846A
:102A300081848182817F807C7D7C7C7B7B7B7B7BB6
:102A40007A7B7B7A7A7C7D7D7F7E7F7F7E7E7D7EBA
:102A50007E7F7F7F7F80808080808182828383826F
:102A6000838284848584838281817F807D7D7D7D56
:102A70007D7E7D7D7C7D7D7D7C7C7E7E7F7C7E7E83
:102A80007F7E7F7F7F7F818180807F838082838440
:102A900083838183828083807F827C7F817A7F7D34
:102AA0007D7B7B7C7D7C80807D7E7D807B7E807E4F
:102AB000807E807E7D7F7E817B81827F8480818419
:102AC0007F808280838182807F8281838183817FF6
:102AD0007F7B7D7E7C807C7C7C7A7D7D7F7C7E7D27
:102AE0007F7D7E7D7F7F81827E86818182857E81E2
:102AF000817F817E83817F8182808181817F807DD2
:102B0000817D7C7D7C7D7D7C7C7E7C7B7C807A7FF6
:102B10007E7E807F81837E8182848380847F807DAE
:102B2000807F8180837E8382818482827E837A819A
:102B30007B7F7C7A807C7F7C7F7E7D7D7F7D7C7FC0
:102B4000807D807C8580818381817F8280827C837F
:102B50007D807D80817B807B837B7D807D7C7D8192
:102B60007D80808283808382847E7F837D7D7D8360
:102B70007C7B7E7D7E797E807E7D7C837D7E837E78
:102B8000807D848181807E857E817F847E827E813E
:102B9000837C847C847A7F7F7E7D7D807D7F7C8248
:102BA0007E7D7F817C7C7F81807E807E817C828235
:102BB0008082808280817F827F7E808080837F7E12
:102BC0007F7E7D807F7F7E7F807E807E807E7E7F19
:102BD0007F7E7D7C7C7E7D7C7D7E7D7B7A7E7E7C27
:102BE0007D817F818284838285858986888A8887A2
:102BF00089878684848482817F817D7A7C7A7779D3
:102C00007676737475737272747374757678787778
:102C10007B7C7B7E8283888B898F94919397969817
:102C20009691928E8886837D7C7A787A777679778A
:102C30007475757577757475717072716D6F70706C
:102C40007271727A857D7E8D8F9093969D9C939400
:102C5000988F878885817F7C7E807A7A7F7E7E8050
:102C600081807E7979777171716E6E6B6C6E6D6D2E
:102C7000707373767E8C88859297959394999B92C6
:102C80008D928E848281807D78797F7B7A7D808031
:102C90007D7D7F7F7A78787572706E706F6D7072DF
:102CA00073737374797D898A8490959191909295CC
:102CB0008E898D8C8583807D7E7A787C7D7C8082F8
:102CC0008282807E817D7A797776767170706D6C84
:102CD0006E6F727473757C8884818C9193919094DB
:102CE00098908B8C8D8A858080817E7B7B7D7E7D9C
:102CF0007D7F81807D7D7D7C79777777747272713D
:102D0000727070747575787B868482898D91908CD1
:102D10008E95928D8B8988867F7D7F7C7A7A797C6F
:102D20007E7B7C7E7F81807F817F7D7D7B797774D8
:102D30007475757476747576787F7C7D8184898AE4
:102D400089898E8B8B8B8989898684848382817E15
:102D50007F828282818081807E7D7B7A7A7877779C
:102D6000767574727375767778787B7F7D7E8082D6
:102D700084878688898888878688878687868687E5
:102D8000868484838383828282817F7E7C7B7B793D
:102D9000787A797A78787877777778787879797CAB
:102DA0007B7B7C7C7E7F8081838485868788898904
:102DB0008889898B8B89898887868482817F7F7EB9
:102DC0007C7B7A7A78777676777575767778787788
:102DD00078797A7B7B7C7E7E7F8081828383858607
:102DE0008787878888888989898886868584838279
:102DF00081807F7E7D7C7C7B7A7A7B7B7B7B7B7B0F
:102E00007C7B7B7979797A7A7A7979797A7B7B7C20
:102E10007D7E8082848686888A8A8989888686865D
:102E20008685848482828280807F7D7D7C7C7D7C9F
:102E30007C7C7B7C7B7B7B7B7B7B7C7B7B7C7C7CDB
:102E40007D7D7E7F7F818182828180808080808184
:102E50008182828382828383838382828180808055
:102E60007F7F80808080807F7F7E7E7F8081807F6B
:102E70007D7B7A7C7E7F7F7F7F7E7E7E7F7F7F7E75
:102E80007E7D7C7D7D7D7D7E7F8080808182838450
:102E90008382818181818182828383828281818018
:102EA000807F7E7D7D7D7D7D7D7E7E7E7E7E7F8042
:102EB00080818181818181818181807F7E7D7C7C17
:102EC0007B7B7B7A7A7B7D7E7F7F80808080818127
:102ED00082828283848584848383818181808080CF
:102EE000807F7F80818180807F7E7E7E7E7E7E7DF2
:102EF0007D7D7D7D7D7D7D7D7D7D7E7E7D7C7C7D02
:102F00007E7E7F7F808081808081818282818283BA
:102F1000848485858483828181818180807F7E7E97
:102F20007E7E7E7F7E7E7D7D7E7E7E7F7F7F7F7FBD
:102F30007F7F7E7E7D7D7C7B7B7A7B7B7C7D7D7EC7
:102F40007F7F7F8080818283848585868685858456
:102F50008485858483828180807F7E7D7D7D7D7C6C
:102F60007C7B7B7C7D7D7D7D7D7D7D7E7F7F80808C
:102F700080807F7F7F7E7E7E7E7E7D7D7D7E7E7E6D
:102F80007E7E7F7F7F80818282838383838384842C
:102F900084848484838382828180807F7F7E7E7D1F
:102FA0007D7C7D7D7D7E7D7D7D7D7D7D7E7E7F7F4B
:102FB0007F7E7E7D7D7D7D7D7D7C7D7D7D7D7E7E3C
:102FC0007F808081818181828283848484848484DF
:102FD0008484848484838384838281807F7F7F7ED2
:102FE0007D7C7B7B7B7A7A7A7B7B7A7B7B7C7C7C2F
:102FF0007C7D7D7D7D7E7E7E7E7F7F8080818181E8
:10300000828283838383848484848483838383838D
:10301000838282818181818181807F7F7E7E7E7DAE
:103020007D7D7E7D7D7D7A797A7A7A797A7B7B7BEC
:103030007A7B7B7C7D7F7F8081828383848585868C
:10304000868787868584848483838281808081804B
:103050007E7E7E7F7F7F7D7E7D7D7D7D7E7E7F828D
:10306000847F7B79797B7A797979797977787878BF
:10307000797E80808181848888878786888B89860D
:103080008583838482818181828280808281818321
:1030900083807F7D7F7E79767373757572727374AA
:1030A00076757375777B80878A8B8D8C9093908DE6
:1030B0008B888887827E7B79797A797C7E80848808
:1030C0008B8D8B898886837F7A76767372706D6E2E
:1030D000717373747273747576787A878C8B8D8B39
:1030E0008E94958E8D87888C87807B78777F7F7D87
:1030F0008082868F8D87868282837B74726E6E71EA
:103100006E6B6E6E727775727374777C797E8E8D4E
:1031100090938C9296958E8E828386807C78747440
:10312000817E838283888F8E8B8880807F7B737281
:103130006B6E727271717173797676747373798054
:103140008D8B8B8C8B9496958A8B838687817C76EE
:10315000787A84838584878B909088837C7C797649
:103160006F6B696B7071726F70737678777672754A
:103170007889938E928B8F9699948D887F8584829F
:103180007B7676798384888487898F8F89837A7820
:103190007778736F6B6C71737673737375797978F5
:1031A000727172818F8C9188888D95968F8B7E81BC
:1031B0008285817E7B767F848A8C8C89898F8C89BD
:1031C000827973727270716D6C6D707375777576CC
:1031D000767677767574818B8D958F8D8E919291A1
:1031E0009286848180808281797C7B7E868A8A89AE
:1031F000898484837F7B76736E7071727372707151
:1032000075767A7B7A787776767A85898C90898BD1
:103210008B8E8F919188878280828482807F7E7E50
:103220008284878A8884817E7A79787574737070D5
:1032300072727375767577777778797878787B831B
:10324000878E8E8C8D8B8D8D9192908E89868381C9
:103250008080827F807F7D7F8181817F7C7977758F
:1032600076787876757675767777797979787979E9
:10327000797978787D7F878B8A8D8C8E8D8E9090F2
:10328000918D8B88858381817F8080807F7E7D7C0E
:103290007B7A787978787777777777777778797AAC
:1032A00079777778797A7C7C7C7D80838789898B34
:1032B0008B8C8A8C8D8D8F8D8B87837F7C7C7C7EA5
:1032C0007E7B7D7D7D7C7B7B7C7C7C7D7C7B7B7A3F
:1032D0007A7B7B7A7979777777787A7A7A79797A5B
:1032E0007C7F8185898C8E8D8D8C8E8E8E8E8C8B45
:1032F0008984817D7C7B7B7B7B7C7A7B7A79787807
:1033000078797A7B7C7C7B7B7B7B7A7A7B7C7C7D0F
:103310007D7D7D7D7D7D7C7B7C7E7F8185878B8BAC
:103320008C8C8B8B8A8A8989888583817F7E7E7D40
:103330007D7D7D7D7D7D7D7C7B7A797A7A7B7A79D6
:1033400079787979797A7A7B7C7E7E7F80808080BB
:10335000807F7F808182848486858687878887872F
:1033600086858482828180807E7D7E7F7F80808052
:10337000807F7E7E7E7D7C7C7B7B7C7D7D7D7C7C7E
:103380007B7B7B7B7B7B7B7B7C7C7C7C7B7C7D7D84
:103390007F818385868888898A8A8A8989878584C6
:1033A0008281807E7E7D7D7D7D7E7E7F7F7F7F7E34
:1033B0007E7D7D7D7D7D7D7D7D7D7D7D7C7B7B7B43
:1033C0007B7B7B7A7A797978797A7C7E8081858635
:1033D0008889898A8A8A8A8A878584838383838283
:1033E000807F7F7E7E7F7F7F7E7E7D7C7C7B7A7A06
:1033F0007A7A7A7A7B7B7B7B7B7B7B7B7B7C7C7C1E
:103400007C7C7B7C7C7D7E7F818486888A8A8B8C99
:103410008B8A898885838281818281817F7F7F7F7A
:1034200080807F7F7F7E7E7D7C7B797878787879DD
:10343000797979797A7A7A7B7B7C7D7D7D7D7D7ED9
:103440007E7F82838688898B8C8D8D8C8B89888604
:103450008381807F7D7D7D7C7C7C7C7C7C7C7D7D94
:103460007D7E7E7E7D7D7C7B7B7B7B7B7B7C7C7C99
:103470007D7C7C7C7B7C7C7C7C7C7C7C7E80818578
:1034800087898C8B8D8C8C8B8A88868483807F7DCA
:103490007B7B7A7B7C7C7D7C7C7D7C7D7D7D7D7D6A
:1034A0007D7D7D7C7B7B7B7B7C7C7D7D7D7D7D7D57
:1034B0007C7C7C7C7C7D7E81818386878A8B8B8CE7
:1034C0008A89878685838281807F7C7C7C7B7D7DE9
:1034D0007F818081807F7E7D7D7C7C7B7A7A79781C
:1034E00079787979797B7C7C7D7D7D7C7B7B7C7D2B
:1034F0008084868A8B8D8E8D8D8B8A898786838248
:103500007F7C7C7A7A7B7A7C7C7D7F7F8080807FE9
:103510007E7D7B7B7B7B7B7A79797979797A7A7A04
:103520007A79797A797A7C7E8286878D8D8F908F71
:103530008E8C8B8887868483817E7D7A7A7B7C7E65
:103540007F818181807E7D797877767777787878CA
:1035500077777878797A7B7C7D7C7C7A7A7E7E85B9
:103560008B8C949192908C8B8889878785807F79CA
:103570007777767A7D8284868682827E7C7B797874
:10358000777775757372747374777779797A7979D7
:103590007A7881838993919794918F8C8D898D8A84
:1035A00086867C7B7775787A808186878586807F22
:1035B0007C7A77757470716F6E706F727477797AC8
:1035C0007C7A7B79787C84889199969A938E8C8A80
:1035D0008B8A8E888480767573767B8188888C88C8
:1035E0008585807F7C7A7573706C6E6C6D7070737E
:1035F00073757677797779767C8889999998998F98
:103600008F888D8D8B8F83827874767781848C8A76
:103610008888838682827D78746B6D6A6C6F6F7226
:103620007072717277777C7979757889899A9E98AA
:103630009A8C8D868C8C898D7F7C7471787D898A3B
:103640008F8B8688848785837B736F686D6F7275B7
:1036500073726E7173757C797A74706F7A8B8DA0CA
:1036600098918D838887938E8A877475727A838CFC
:10367000918A8C84868C8D8E847D6E6B6C6D767554
:10368000756F6E6E707A7A7B78726F6C73728691DA
:103690008F9B8E8E898D918E94837F7873787A83B9
:1036A000808686828D8D92918E8379776E74757502
:1036B0007370716E77797A7C777371737273756FCB
:1036C00077888A979B94908B8D878E8A807D747380
:1036D000747E83878F8A8D8F9291908A7B79706FA9
:1036E000747575727370747A7A7C78746E6F717198
:1036F00072706E7B8D909D9A918D8A8C898E847963
:103700007672767C8686868C898E93948E877E737D
:103710007474767777727076777D807C7974747242
:103720007374706F6E6F7991949A998C8A868E8873
:1037300089837475747B808787838A8C9195948B39
:10374000807E76797A79757274727B7D7D7C7876ED
:1037500074777471716C6E70757783958F97928C96
:103760008B8A8E83867B75787981818985848C8E1E
:10377000928F8D817D7C787B7777727577777E7C71
:103780007C7A7A7876767170707173757777788ACB
:1037900095949A8F8985878985867977797F858AB7
:1037A0008C84868A8D8F8C867D7D7A7A7C797774FD
:1037B00077787C807D7A7778787774706E6E7174A4
:1037C000777978797F939598968886838C87878296
:1037D000777A7D86888A878186898D8B877E787CBB
:1037E0007A7D7A7873737B7B807E7B78797C7A793B
:1037F00073706F7175777A77777A7C859694928EED
:103800008586868F878480797D838A8685817D847D
:10381000898D87847B7A817F7D78777578807F80BA
:103820007A78787B7D7876716F707579787776782D
:103830007C7D7F7D8A9590978E8A86898C84877B14
:103840007B7C808684857B7D81868986867E7F7F62
:103850007F807A78747A7C7D807D7B787B7A7977BB
:1038600074747476767778787C7D7F7C7A7A7C92B3
:10387000949493868684908B8682777B7D868483DE
:1038800080787F838B8887827B8282857D7B777639
:103890007E7C7E7A79767A817F7E787776797B787E
:1038A000777171767A7D7C7B7573757D92918E8B45
:1038B000848A8C968C878079808289807F7B7A85C8
:1038C000888C86847F7F8584827B7A797C838080E4
:1038D0007C7E7F8284807D7878797B77726F6E7151
:1038E000737675727274787A7975747D9394959302
:1038F00088898A958E8B82777B808985847E79847E
:103900008B928E8A82808885837C7974777E7C7F97
:103910007B7B7B7E817D7B75747577787574727423
:10392000797A78757471747575767677777A859803
:103930009899958E9091978D88817A7F82888483DB
:103940008180898E908A87807D81807D7674727671
:103950007E7F807D7D7E82827D79757576787775B4
:1039600075757A7D7F7B77757476767571717376F0
:103970007B7E807F7E8D9D9A9C9289878A908888A5
:103980007D797E858C88898080888B8D868177780B
:103990007E7E807C7A767C828384807C7A7F7F7C4A
:1039A0007A7473747978787775787B7D7B797573A1
:1039B000767575737475787C7F8181828384868245
:1039C0008D9890958C89888A8F868A807E8185875C
:1039D00083877E7F83858683837A7D807F7F7B7AE2
:1039E000777E8080827D7D7B807E7D797374737825
:1039F000777776757A7C7F7D7D7A7A7C7A7A767530
:103A000075777C7D7E7C7E7E8184838380817E82CF
:103A10009596959389888A918D8984797C8187840C
:103A2000847F7A83898E8C88807B7F7F7F7A746E97
:103A30006F777B7F7E7B797B8081807A7675787AE1
:103A40007B7A78787B7F82827E7A7A7B7C7B7874C3
:103A500073777B7E7E7C7A7A7D8082817D7C7D7FA0
:103A6000828381859696999990908D928B8B85799A
:103A70007B7B807F83807D83848887857D78797652
:103A80007978777374797A848583827F7D7C7E7977
:103A900077767576797B797B7B7B7F807E7C7B7884
:103AA000787A7879797B7B7E817F80808080817E47
:103AB0007E7F7F80818281838586979A96968A8889
:103AC000868A87838275787C828586867E828386D5
:103AD00088857F777976797B79767378787F848229
:103AE000807D7A787B7978777575797D7E7F7E7D2C
:103AF00080807F7F7E7A797A797A7B7B7A7B7D7C06
:103B00007E7E7D7E7E7E7E7F7E80828284868685AE
:103B1000868896979698898A8489878584787C7C1C
:103B2000818485847D7F7B8083817E7676717678C3
:103B3000787A7779787F818385807D7B7B7A7D7BBE
:103B4000797A797B7E81807F7E7C7E7E7D7C7B7AAC
:103B5000787A797A7B7B7D7C7E7E7F7E7D7D7B7BA8
:103B60007C7E7F8183838586868587879498959AD6
:103B70008B8A84878987897C7E7A7C8383857E7F14
:103B8000797B8280817A77707375767C77777477AA
:103B90007C818885847E7C7C7F817F7F7B7B7D7E32
:103BA00082817F7B7B7B7C7E7C7A75747275777972
:103BB0007B797A797A7D7D7F7E7D7D7E8183858626
:103BC00088888A8B8B8A88888C969599948A888233
:103BD00085868A84807D767A7C7F807F7D797D7BF7
:103BE0007F807C7872716F75797A7C78797A7E8340
:103BF0008788817E79777A7C7F7E7E7A7B7D7E82E4
:103C0000807D7B7B7C7C7E7A79757375787D7F8007
:103C10007D7A7A7A7D7F828383828185868989898C
:103C20008A898A88878585868D9092948B8A8482FA
:103C30008383827E7C757375767B7D7F7C7C7B7BCA
:103C4000807F7F7D78757678797D7E7E807E8083AB
:103C5000868586827D7C7777797A7B7B7A797D7E93
:103C60007E807D7D7B7A797C7D7D7E7A7B7C7C7F8E
:103C7000828281817D7E7F7F8180807F8182848836
:103C800088888683828282838483868A8B908E8DC5
:103C90008A868482817F7F7C797A787A7D7F81832E
:103CA0008380807E7E7E7B787776757677787B7D65
:103CB0007D7F80828281817E7C7A7878797B7C7E30
:103CC0007F7F7F7D7E7F7F7F7F7E7E7E7E7E7F7F0C
:103CD0007F7F7F8081807F7E7C7B7A7B7E7E7F7F03
:103CE000808284858687878684818180808182899D
:103CF0008A909290908B8884828282807B7A777778
:103D00007A7C7F8282817F7D7B7C7A7A78747473FF
:103D10007476787B7E8181817F7E807F81818180C6
:103D20007F7F7E7F7F808181817F7E7D7D7D7E7FA5
:103D30007E7E7C7B7C7C7E7F807F7C7B7A7B7C7CB8
:103D40007C7D7D7D7D7D7F8283858687888583825E
:103D5000838485858586848687888D8E8E8C8985EB
:103D6000817E7D7E7E7E7E7C7B7A797A7C7D7F8083
:103D70007E7C79777777797A7B7C7C7B7B7B7E8096
:103D800081818382807E7B7C7F8081808081818035
:103D90007F7E7E7F7E7B7B7B7D7E7E7F7F807F7C48
:103DA0007A7B7C7D7F7D7B7C7B7A7A7A7D7F80814C
:103DB00081828382828384868887878585858586BC
:103DC000858788898B8C8D8C8684807E7F7E7E7DA6
:103DD0007B7A79797A7C7D808382817D797675762C
:103DE000787878797A7C7B7B7D7F818383838380FD
:103DF0007F7D7C7C7E7E8082828382858584837EBB
:103E00007B78787A7D7F807F7D7D7A7B7D7D807FEA
:103E10007F7E7B7978797B7D7F7E808080818184C5
:103E20008586878585848182828285858584828254
:103E30007F8082858A8C8B898683807D7D7E808150
:103E4000807C7B78777A7A7D8081817F7E7C7B7BAA
:103E50007C7D7F81807F7D7C7D7D7E7F80807E7C80
:103E60007A7A7A7B7D7E80808081808180807F7F6E
:103E70008284858681807A7778787D808183817D50
:103E80007B79787B7E818482827F7C7B7A7B7E805B
:103E9000828281807F7E7F82848686858583828000
:103EA00080818283828281818182848689888784DD
:103EB00081807E7E7F7F8181807E7D7C7D7E7F8113
:103EC00082827F7D7B7978797A7C7E7E7E7D7D7C27
:103ED0007C7D7E7F7F7F7E7D7B7A7A797B7D7F8014
:103EE00081818080828384868586817F7E7B7C7BC6
:103EF0007D8180807E7C7C7C7C7E808082807F7DDA
:103F00007B7B7A7D808182807F7E7D7D7E818283C6
:103F10008482828080808283848584848383807F7E
:103F20007F7E81828387868987878782817E7D7E67
:103F30007E7E7E7D7C7B79797B7C7F818284817FA4
:103F40007C7979797B7C7D7D7E7C7B7B7B7D7E80B3
:103F50008281817E7C7C7C7C7D7E7F808080818173
:103F60008483858581817C7B7D7C7F7E7F7F7D7D59
:103F70007B7C7D7E7F8282807F7B7B7A7A7E7F8264
:103F800083838381807F7F80828484848282818016
:103F90008281828281828080818080807F80808017
:103FA00084858888878682807F7D7E7E7F807F7FF4
:103FB0007D7B7B7B7C7E80818382807E7C7C7C7D24
:103FC0007D7C7C7B7B7C7B7B7C7D7D7D7D7E7F7F28
:103FD0007F7F7F7E7D7E7F808182848584828180D9
:103FE000818181838181807F7D7C7D7C7C7D7F80E0
:103FF0007E7D7D7C7B7B7B7C7C7F808282828281DC
:10400000828282838384848484828280807F808190
:1040100080807E7E7F80828384868585848483827F
:10402000828080807F7E7D7D7C7D7E7F8081807FA1
:104030007D7B7B7B7A7A797A7B7B7C7D7E7E7E7FC3
:104040007F7F808081818282828180807F7F7F7F6D
:10405000808080807F7E7E7E7E7E7E7E7E7E7E7F76
:104060007F7F7F7F7F7F8080808080808080807F57
:104070007F7F7F80807F7F7E7E7F7F80808080814A
:10408000828282818282828282828282838384840B
:1040900084848382818180807F7E7E7D7D7D7C7C27
:1040A0007C7D7D7D7E7F80808080807F7F7F7E7E27
:1040B0007E7E7E7E7D7D7C7C7C7C7D7D7E7E7E7F2B
:1040C0007E7E7E7E7F7E7E7F8081828282828180F4
:1040D0008080818181807F7F7F7F7F7E7E7E7D7DEE
:1040E0007D7E7E7E7E7E7E7F7F7F808181818181DD
:1040F00081828182828283828180808080808080B0
:10410000807F7E7E807F818182848384838383829B
:104110008281818281807F7E7E7E7D7D7D7D7E7EAF
:104120007E7E7D7E7D7D7C7C7D7C7C7C7C7D7E7EC0
:104130007E7F7F7F7F7F808181828181807F7F7F83
:104140007F7F7E7E7E7E7E7E7E7E7F7F807F7F8085
:10415000808181818080808080808181808080805A
:10416000808080807F7E7E7E7E7E7E80808080805C
:10417000808080808181828282818080818283822E
:104180008281807F7E7E7F7F808181828281828129
:1041900081817F7F7F7E7F7F7F7F7F7F7F7E7E7F2E
:1041A0007F80807F7F7E7D7D7C7D7D7C7C7C7C7C38
:1041B0007C7D7E7E7F7F7F80808180808181818009
:1041C0007F7F7F7F808080818081808080807F7FF3
:1041D0007F7F7F7F7E7E7E7E7E7E7F7F807F7F80F3
:1041E00081818181818181808080808181818080C5
:1041F0007F7F7F7F808080807F80808080808180C3
:10420000818081828384848484838282828281808B
:104210007F7E7D7C7C7C7C7D7D7D7D7D7D7D7E7ECD
:104220007F807F7E7E7E7E7E7E7F7F7F7F7E7E7EA6
:104230007F8080807F7F7F7F7F7F7F7F7F7E7E7E8E
:104240007D7E7F8081818181818182828282828163
:10425000807F7F7F7E7D7D7D7D7D7D7D7E7E7E7E80
:104260007E7E7F7F7F7F8180818181828282828248
:104270008282818181818180807F7F7F7F80818236
:1042800083828281828282828181807F7F7F7F7F21
:104290007F7E7E7E7F7F7F7F7F7F7E7D7D7D7D7D3C
:1042A0007D7C7C7C7B7B7C7E7F7F7F7F7F7F7F8034
:1042B00080818181818081807F807E807F7F7F7F00
:1042C0007F80808080807F807F7F818181807E7DF4
:1042D0007D7D7E7F7F807F7E7E7E7F8080808180EF
:1042E000807F7E818283807E7D7D7D7D7E7E7F7FDF
:1042F0007F807F8184858888878685848485848380
:10430000817F7F7E7E7D7C7C7C7D7D7D7E7E7F7FD0
:104310007F7F7F7F7F7F7F7E7D7D7D7D7D7D7D7DBE
:104320007D7D7D7D7E7F7F7F8080807F7F808080A0
:104330007F7F7F7F7E7E7E7E7E7F8081818080808A
:10434000818283828281808080818180807F7E7D66
:104350007D7E7F7E7D7D7E7D7E7F7F80818182816F
:1043600081818080808080807F7F7F7F7E7F7F8053
:104370008180808182828383838281808080818129
:10438000818081808080807F7F7F7F7E7E7D7F7F38
:104390007F7E7D7D7D7E80807F7E7F7F7E7E7F7F36
:1043A0007F808181818180818181807F7F7F7E7D0F
:1043B0007D7C7C7C7D7D7C7D7E7E7F7F808080811E
:1043C000828281807F7F7F80818181818080807FE8
:1043D0007F7F7F8081818080808080808080807FDF
:1043E0007F7F7F7F7F7F8080807F7F8080808181D3
:1043F00080807F7F7E7E80807F7F7F7F80818181C4
:1044000081807F7F8182838181818080807F7E7EA9
:104410007E7F7F7F7F7F808080807F7F8080807FA6
:104420007E7D7D7E7F7F7F7D7C7C7C7D7D7D7E7FB4
:104430007F7F7F7F7F7F7F80818283828181808079
:10444000808080807F7F7E7E7F80807F8080807F75
:104450007E7E7F7F80817F7F7E7E80808081808165
:10446000818080817F817F807E7B817C7D807C7F5D
:10447000817E80807F818080818080828181828135
:1044800080818182828181818080807F807F7F7F27
:104490007E7E7D7D7D7E7E7E7E7D7E7E7E7F80803B
:1044A000807F7E7D7E7E7F80818181807F7F7E7F19
:1044B0007F80818080807E7E7F80808180807F7E03
:1044C0007E7F7F7F807F7F7F7E7F807F807E8283F5
:1044D0007B827F7B817C7E807D81807D817F7E82EF
:1044E0007D7F837D83817F847F80828081817F81C6
:1044F0008080807F7F807F7F7E7E7E7E7E7F7F7ECE
:104500007E7E7E7E7E7E7E7E7F7F7F8081818281B9
:10451000818181818282818180807F7F7E7F7F8097
:1045200080807F7F7E7E8080818081807F7E7E7E96
:104530007F7F807F7F7E827D75807E7E817A7F7F98
:104540007B7F7C7D817F8080808180818385817F6E
:10455000828082827F82807F807E7F7F7D7E7F7E61
:104560007F7D7D7D7D7E7F7E7E7E7E7F7F807F8066
:10457000818081818084847D808181827F817F8030
:10458000817E807E7F7E7F807E817F7C827E7F7F3A
:104590007B807D7D7F7E7F7F7D7F7F7F7F7E808034
:1045A0008180807F7F7D7F7E7F817E837F81807F12
:1045B00080818186807F807E847F82817C837B7FF7
:1045C000807B817C807F7D7E7B7E7C807F7F7D7D0C
:1045D0007D7E817D817D7F8480837F8080818581D8
:1045E000807F7C837E80807D8081807F807B8081D6
:1045F00080817F7D7E7F7F807D7E7E808080807ECB
:1046000080807E827F7F807D817F7F7F7D7F7E80B7
:104610007E7F7F7E8180817E7F7E81837F827F819E
:104620008181827F807C8181807F7C7F7F807C7B99
:104630007C7C7F7F7E7D7D7D7E807F817E7E818094
:1046400080807F80838482817F8183818180807F5D
:104650007F7D7D7C7C807F807E7D7C7D7F7E827F78
:104660007F807F807F818080807F8280807F7E814D
:1046700081817F7F7F7F807F807E7F8080817F7F41
:104680007E7F8180807E7E7F8182807F7E7E7F7F35
:104690007F7E7E7F80807F7E7F80807F7F80807F27
:1046A0007F7F808181818282818181818180807F01
:1046B0007F8081807F7E7D7D7E7E7F7F7F7E7E7E10
:1046C0007E7E7E7E7E8080807E7E7F7F80808181F8
:1046D000818180808081807F7F7F80807E7E7F80DF
:1046E000807F7F7E7E7F808281817F7E7E7D7E7ED9
:1046F0008082828280807E7E7D7E7F7F807F7F7FC2
:104700007F7F7D7D7D7E80808080808181818181B1
:10471000808182828282818081828382807F7F7E8B
:104720007C7D7D7D7E7E7D7E7E7E7D7D7E7F8080AC
:104730008180807F7F808081828181808081818073
:104740007F80818181807F7E7F7E7D7E7E7D7E7F7A
:10475000807F7F7D7D7E7E8080807F80828284835B
:1047600081807F8181807E7E7F7F7E7E818181804E
:104770007F8081827E7C7B7B7B7C7E7F7F7D7E8059
:104780007F7F7F7E7D7D7E80808180818281817F31
:104790007F7F7F80808180807F7D7E7F818280801F
:1047A0007E7E7E8080808282828282818080808103
:1047B00081808080807F7E7E7F81807E7D7D7E7E09
:1047C0007E7F7E7E7F7F7F7F8080808081828281EE
:1047D00080808080818181807F7E7E7E7E7E7D7DE7
:1047E0007E8081807F7E7E7F8081818181807F7ECF
:1047F0007E7F808181807F7F7E7E7E7E7D7E7F80CA
:10480000807F7F7E7E7E7F80807F7E7E7F7F8081B7
:10481000818181818180807F80808081807F7D7D9A
:104820007D7D8080817F7E7F7E7F7E7F8080818195
:10483000807F7F7E7F808181818281807F80818176
:10484000817F7E7E7E7F7F7F7E7F7F7F7E7D7D7E80
:104850008080808081808182818080808080807F54
:104860007F7F8080807F7F7F7F7F7F7F807F7F7F54
:1048700080807F7F7F80807F8080818180807F7F3C
:10488000808081807F7E7E7E7E7E7E7E7E7E7E7E3E
:104890007E7F808080818180808080808081818116
:1048A000818181808080807F7E7E7F7F807F7F7F0F
:1048B0007E7D7D7E7F7F7E7E7F7F7F7F8082818009
:1048C0007F7F80808080808080807F8080807F7FED
:1048D000807F7F7F7E7E7E7F7F7F7F7F7F7F8081E7
:1048E0008081808080808081818180807F7F7F80C7
:1048F000807F7F7E7E7E7E7F7F807F7F80808180C5
:1049000080807F807F80818181818180807F7F80A6
:104910007F80807F7F7E7E7E7F7F7F7E7D7D7E7EAF
:104920007F7F808080808081818281818080808083
:10493000807F7F7F7F7F7E7E7D7E7F7F7F80807F89
:104940007F7F7F80808180807F7F807F808081816A
:1049500080807F7F7F7F8080807F7F7F7E7E7E7E66
:104960007F7F8080807F7F7F808081818181818047
:10497000807F808080807F7F7E7E7E7E7F807F7F45
:104980007F7F7F7E7F7F7F8080808080808080802F
:1049900080808181818180808080808080807F7E16
:1049A0007E7E7E7E7E7E7F7E7E7E7F7F808080801C
:1049B00081808181818181818080808080808080F0
:1049C000807F7E7E7E7E7F7F7F7F7F7E7E7F8080FA
:1049D000808080807F7F8081818080807F7F7F7FDB
:1049E000807F7F7F7E7F7F7F7F807F7F7F808080D3
:1049F000808081807F7F8080818080818080807FB7
:104A00007F7F7F7E7E7F7F7F7E7E7E7E7E7F7F80BC
:104A1000807F7F7F7F808081818180807F7F808099
:104A2000818181807F7F7F7F7F7F7F7F7F7E7E7E92
:104A30007E7E7F7F7F80808080807F80808080807E
:104A40008081807F8080808181807F7F7E7E7E7F6D
:104A50007F7F7F7F7F7E7E7F7F8081808080808060
:104A600080818080807F7F7F7F7F7F7F7F7F7F7E51
:104A70007E7F7F80807F7F7F7F7F7F808080808040
:104A800080808080808181808080807F7F7F7F7F29
:104A90007F807F7F7F7E7E7E7F8080807F80808022
:104AA000807F808181818080808080808180807F04
:104AB0007F7F7F7E7E7F7F7F7F7E7D7E7E7F7F800C
:104AC000807F7F7F7F7F7F7F80818180807F8080EC
:104AD00080808080808080807F7F80808180807FD8
:104AE0007F7F7F7F7F7F80808180807F80808282C8
:104AF000828181818282828181818181807F7F7FA9
:104B00007F7F7E7D7D7C7C7C7D7D7C7C7D7D7D7CD6
:104B10007C7C7E7F7F7F7F7F7E7F7F7F7F808081A9
:104B2000807F7F7F7F7F80807F7F7F7F7F7F7F8091
:104B30008182828180808080818281818181818067
:104B40008080818182828282828282828383838347
:104B5000838382818181818180807F7F7E7E7E7E52
:104B60007D7C7C7B7B7A7A7A7B7B7B7B7B7B7C7D91
:104B70007E7F808080808080808181828181807F33
:104B80008080808081807F7F7F7E7E7E7F80807F2F
:104B90007E7D7D7D7D7E7F8080807F7F7F7F808228
:104BA00082828281808080808182838382818080F2
:104BB00080818283848382828182828384858483CC
:104BC00081807F7F7F8080807F7E7D7B7B7B7C7C04
:104BD0007D7D7C7A7979797A7C7D7E7E7D7D7D7D17
:104BE0007E7F8082828281807F7F80818182817FBF
:104BF0007F7E7E7E7F7F80807F7E7D7D7D7D7E7FD0
:104C00007F7F7F7E7D7E7E7F8081818181808080AD
:104C10008082838383828180808081828384858473
:104C200084838384848686868584828180807F7F56
:104C30007E7D7D7C7B7A7A797A7B7B7B7B7A7A7AC4
:104C40007B7B7C7D7D7E7E7F7F7F7F808182838278
:104C500082818080808080807F7F7F7D7D7C7C7C66
:104C60007D7E7E7E7C7C7B7C7D7D7E7E7E7F7F7E6E
:104C70007E7F7F7F8182838382828282838384841A
:104C800084838484848587888A8B8A8988868686BB
:104C9000858483817F7C7B79777776767777787860
:104CA0007777787A7B7D7E8081828283838382821C
:104CB0008282817F7D7B7A7A79797A7B7C7C7C7D2C
:104CC0007D7D7D7C7C7C7D7D7C7C7B7C7C7C7C7D1F
:104CD0007E7F80818283848484858687878686859B
:104CE00084848383838282838486888A8A8C8C8C62
:104CF0008B898784827F7E7C7A78757473737577ED
:104D0000797B7E7F80818182818181807F7D7B79BB
:104D10007777767778797B7B7C7E7F8082807E7EDA
:104D20007C7B7A787777787A7B7D7E7F7F7E7F7FCA
:104D30007F808082828283838384858687888A8934
:104D4000888785858585848482828485878A8A8C04
:104D50008C8A88837F7D7B797879797A7C7C7D7D6C
:104D60007E808081817F7D7C797876757677787991
:104D70007B7C7C7D7E7E7D7C7B7A79797878797A84
:104D80007C7E7E7E7E7E7F7F7F7D7D7B7C7E7F8244
:104D900084868687878786868685838484848582C1
:104DA00082838485868585858383828387888B8DAE
:104DB0008A89847F7C797878797A7C7E7E7E7D7B17
:104DC0007B7A7B7E7D7F7F7F7F7E7E7D7C7B7A7A18
:104DD000797A7A7A7B797877767676787A7B7C7C42
:104DE0007D7D7D7D7D7E7E7F7E7F7F7F83808285D2
:104DF000818484818683838581858686888587846E
:104E00008282808183858B9194959188827A737454
:104E1000757B84878B8A837E76727173787C8182BE
:104E200081817D7E807D7D79757574767C81827FC0
:104E30007A716E6D6E757A7D817D79777576797C04
:104E40007D7F807F81818184838487868786858634
:104E50008687868683828584858D989A9F9A8882A4
:104E60007169737684909394897E716D70717C8082
:104E70007E827B7A7E7E82838079747170787F8473
:104E80008A827A726A6B71798186827B7772727894
:104E90007B81817A7977787F8382837D777B7E833C
:104EA0008C8E89837C7B81929EA19F8C7E786F798A
:104EB000838D98958E817874747D7F81807A7C7DD6
:104EC000808484827B7672737B7F84847F7B76731D
:104ED0007477777778767779787B7A797977787954
:104EE0007D7E80807C7F7C80878386827E89989986
:104EF0009D967E78717485919B9993837878737A67
:104F00007F7E8181828486847F7A7473787E8488B0
:104F100086807A747375787A7C7A7976757575750A
:104F20007779797A7777757A7B7B7D7B797B7B81E3
:104F30007F909E8B9882757975868B9C938D8C7BE8
:104F4000827F7E7D7D80808D8E8E897E767377795F
:104F5000858786857E7C7877747477787B7D7A7692
:104F6000737172757676777777797A7D7A7C7B7BC9
:104F70007F807F8CA09498847476788B8F9C9187A7
:104F8000857F8483827A7B7C7F8A8E8E8680747212
:104F900075767F828582817C787773747477777A6F
:104FA00079787977777878777879797B7A7B7C7E6E
:104FB000807F82859995908B79797B8A8D94908476
:104FC000848384828179777F81888D89827E7B7AD0
:104FD0007D7D7E7F8181817F7B797777797A777616
:104FE0007676787879777677777879787778787849
:104FF0007A86959993887A777D878D918E8A8B8E24
:105000008D867E77787E858E908C87827E7B7B797D
:105010007A7F8284817D78767676767675747475FB
:1050200075747573767A7C7A7B7977777979879AD4
:105030009692887C7B848A8A8D86858B908C877FEC
:10504000767781888D8C858283827F7A78797D825C
:10505000817D7774747677757371737578757474F0
:10506000757C817D7A75747B8D9897918680838A13
:105070008A888381868D8F8B837C797C81858684E9
:10508000838385837D78787A7F807E7B7777787756
:1050900074737374767977757475767A7A777E8996
:1050A0008D918E85818386898D8A888B8C8B888172
:1050B0007B7A7F828587848281817F7D79787B7E00
:1050C00080807D7A79787776747273767878767660
:1050D000777879777B848A8E8D898585878789889B
:1050E0008687898A89857D7C7D7F8387848281808C
:1050F000817E7B7A7B7D7F7F7D7C7B797877757500
:1051000077777777757576787B7F85898C8F8781C0
:105110008282858C8B898A898889847C7A7C818546
:10512000868280807F7F7C79787A7D7F7E7B7775B1
:105130007576757475767677767675767A858C8ED3
:10514000908683868686888A8A8E8D8B8B87817FE0
:105150007E818586848381807F7B787778797B7A6E
:105160007877757474737373747776747376787CE8
:10517000868A8B8C8986868786878B8C8E8F8C8C93
:1051800089858282848586848383807E7C78787713
:1051900077787978767472727373737372717274CC
:1051A000757E858B8D8C8885868686898A8C8E8F88
:1051B0008F8C87838283858683828383827F7977BE
:1051C000767778797876737170717372727273749E
:1051D00074747D858A8D8C888787868989888A8C76
:1051E0008D908D87848485878682818282807D7878
:1051F0007575767A79767370707172727271717476
:1052000075768087898E8C88888786888A898B8C3A
:105210008D8E8A85838385888885838281827D7A45
:10522000777576787774706E6E6F6F71727070725A
:10523000727A83878D8F89878685888C8B8B8A8A03
:105240008E8D89868484888887858180817F7C791A
:105250007676797876736F6F7070716F6E71727623
:1052600081848A8F8A88878384898B8D8B898A8BB6
:105270008A868482848686868280807D7C7B78751F
:1052800075757777736F6E6F7071727372768188D0
:1052900090938C8783828A8E8D8C88878B8B8B886A
:1052A0008485848485827E7E7C7C7E7A7472717231
:1052B00075726F6E6D6F71727572717B8490998F5C
:1052C00088837F848D8F908D878A8C8C8D86848453
:1052D000848787807E7B797B797574717072717039
:1052E000706C6D6E7076747580859197908D8581E8
:1052F000878B8D8F88878B8A8F8D8684828285832A
:10530000807F7C7B7A7774706E6E6D6E706F6E6E60
:105310006D6F71707B848E9A96918A84868B8D9046
:105320008D898A8A8C8F8C89847F818181817D7A25
:10533000797473716F6F6C6B6B6C6D6E6E70717175
:105340007C828F97939088858A8D8F908A888989AF
:105350008E9090908883838182827D7C797674712F
:105360006E6D696969696D6D6E6F6D757D869192FF
:10537000918D86888B8D8F8B8887888C9192918D6B
:105380008683828284837F7D7874726F6D6B6A6A94
:105390006B6B6D6D6E6C6E78808D92918D88878A47
:1053A0008D8F8E8A8786888B90908E8A878685855A
:1053B00085827D7A747371706E6B6968696B6C6DD0
:1053C0006D6F767E898E8E8C87888B8F92908C887D
:1053D0008586878B8C8D8B8888868685827E7B7779
:1053E0007673726F6C6A69696B6D6E6E6E777C87AF
:1053F0008D8C8B8887898E90918B888484878B8D08
:105400008D8A878886878784807C76757373706CB5
:105410006A68686A6C6C6F6C757C848E8D8C898808
:10542000898E8F918C868585878A8C8A8B878888E0
:10543000878885817F7B7776716F6C6A6B6B6B6C0D
:105440006B6B6C6C767F888F8C8B898A8E92929036
:105450008B8787898B8B88858686898C8A87827DD6
:105460007D7A7774706D6C6A6B6C6C6B6B6B6D6E48
:10547000737D81898A898A8B8D929492908B8A8C94
:105480008B8B888584858788898684817F7D7A77E0
:1054900073706F6F6E6E6C6D6E6E707278797B7FED
:1054A000818384848688898A8C8D8F8E8D8E8C8C66
:1054B0008C898787868583817F7E7D7C7A797977E1
:1054C000767473706F6F707171737576787B7E818F
:1054D000818282828486898A8A8A898A8A8A8C8C55
:1054E0008B8A8A88868583807F7F7D7D7A787675B2
:1054F00075757676757475757778797A7B7D7F8129
:10550000828283838383838483838383848588895E
:1055100089868282828484807E7C7E8282807F7E75
:105520007D7D7F7F7F7E7E7D7C7D7E7D7D7E7D7DA2
:105530007D7C7C7C7D7D7D7D7C7C7D7F7E7E7E7D9B
:105540007E7F7F7E7E7D7E7E7E7F80828384858659
:1055500088898A8A8A8989888786858482807F7DEE
:105560007B7A7A79787777777778787776767675C1
:105570007575767779797B7C7E7F828487888A8C43
:105580008C8D8E8E8E8D8A88878786858483828295
:1055900082817F7E7C7C7B79777675757574747477
:1055A0007577787979797A7C7D7F7F808182838431
:1055B0008484848383848586868787878787878793
:1055C0008685858482817F7E7D7C7C7C7B7A7A7AED
:1055D0007A7B7B7B7C7C7D7D7D7D7D7D7D7D7E7E04
:1055E0007F808181807F80807F7F7F7F7E7F7F7EC5
:1055F0007E7D7E7E7E7E7E7E7F81828283858687A3
:10560000878686878787868685848281807F7E7D60
:105610007D7C7C7B7A7A7A7979787979797A7B7BE7
:105620007C7C7C7C7C7D7D7E7E7F7F7F7F7F80819C
:105630008181818282828282828384858586878736
:10564000878686858585858483838281807F7E7C2D
:105650007C7B7B7B7B7B7A79797878787879797AAF
:105660007B7B7B7B7B7C7C7D7E7E7F808080808063
:1056700080818182828282828283838485868787F9
:1056800087878686868686868585848483817F7FD4
:105690007E7D7C7B7A79797878787777777777777A
:1056A00078777878797A7B7B7B7C7D7E808080813F
:1056B00082838384848584868883828685888388A0
:1056C00089838684858684848583828481828579A2
:1056D0007D7A7D847B817E807976757A7774787423
:1056E0007573737478757274747976757875767A63
:1056F00079828E898C8B8E9A9B96969291958B83CC
:10570000827E80817C7C7F81858581838686847D85
:105710007A7A7875716D6F7373737273797A747244
:105720007172767471747678787F95959390919D67
:105730009F938A85848A837C797C8188827F848C0C
:1057400093928C8A8B878378717274726F6D707785
:105750007874717174756F6C696B6C6E6D7076793D
:105760007D8CA0999490909895847F7C7B837E76A5
:105770007981889089868E8F8E8A7F7E827E7B76E5
:10578000757B817D7D7B7E827E75727172716C68A6
:10579000686E72757376797D7D919E8F8C898A94FF
:1057A0008E7D7F7D8691868288898F8F817E7F81A5
:1057B00084827D7F8283807A787C7E7B7876797B19
:1057C0007973707173777471717274787476787A92
:1057D0007B8BA0958C88848C8D7F7D7E84938E8638
:1057E0008786888A7D77797D81837F828787857D9B
:1057F000787A7E7C7A787B7E7D7673707173737134
:1058000071707171727377787A7A809D9588877FCD
:10581000848D847F808391938C858185877E787742
:105820007E868782808384837C75767D8183808079
:1058300082827E76747376797875757373727073FD
:105840007475767578979986877C7F908980838335
:105850008D969084848383857D7780868588817FFB
:1058600083827D7B787A7F817F7F7E7E7C79787969
:105870007A7A7B77777675737372737778747877C3
:105880008D9F878A7F7B8C8C83838384929288848C
:105890007F7C837F7B7E818486838182827F7F7C05
:1058A0007C81828483807E7E7A7A7A77797A787630
:1058B000757272727475767577767676869F8E8F2E
:1058C0008479888A8684848191938D877F7A7E7F8C
:1058D0007B7D7E8487878382828182807F828284AF
:1058E0008581807D7A7B7C7A7A78787673716F7027
:1058F0007175767674757375768C9C8C91817E89C2
:10590000898586848493918E887F7B828081817F44
:105910008189868181787A817F81837F8384808178
:105920007D76787A797C7876767674767373757509
:105930007473727373767B929A908F7C7C84878861
:10594000898387918F8F867C7A7E7D818383878B05
:105950008787847C7F7D7D80807E828081817B794A
:105960007A787979747573737676757674747573DD
:1059700075747676797C949C918B797980868A8B04
:105980008689919190867B797B7D858685878B86BC
:1059900089847F807E7F83827E807D7F7E7A777818
:1059A000777A7A767574757675757675767373749D
:1059B00076787A76787B889C938E827880878A8DB9
:1059C00089848B8E908D837C7D7F858A8685858377
:1059D00084847F7F7E80838482817E7E7F7E7977D0
:1059E00076777A797876757676747474737474735E
:1059F0007374747779787879809599938B7B7E88A6
:105A00008C918E868A8E9092897F7D7E828888870F
:105A100084828284817E7B7A7D818484817F7F7E83
:105A20007C7876757678787775737375757474721B
:105A3000727376777677787B7A7B7B808193999186
:105A40008F8382898C8F9088898D8E908A807E7DCD
:105A50007E86878483817F85817F7E7A7A8080803D
:105A6000807D7E7E7E7B77747676777774737474B0
:105A70007577757575757476757678797C7E7C7DAD
:105A80007E828B8E938D8888898D92918D8B8A8C66
:105A90008E8C86838183868884817E7E817F7E7ED4
:105AA0007D7D7F7E7E7D7D7C7D7E7E7C7978777737
:105AB000767575747374767574737273757676759E
:105AC00075787D7E7D7D7C8083879397959189878E
:105AD0008B8F92918C8A8B8C8D8B85807E82858634
